:020000040800F2
:10000000B0650020B1010008470200083F02000867
:10001000430200081D020008D90200080000000089
:1000200000000000000000000000000019010008AE
:1000300021020008000000005D01000849020008DC
:10004000CB010008CB010008CB010008CB01000860
:10005000CB010008CB010008CB010008CB01000850
:10006000CB010008CB010008CB010008CB01000840
:10007000CB010008CB010008CB010008CB01000830
:10008000CB010008CB010008CB010008CB01000820
:10009000CB010008CB010008CB010008CB01000810
:1000A000CB010008CB010008CB010008CB01000800
:1000B000CB010008CB010008CB010008CB010008F0
:1000C000CB010008CB010008CB010008CB010008E0
:1000D000CB010008CB010008CB010008CB010008D0
:1000E00023020008CB010008CB010008000000003B
:1000F0000000000000000000000000000000000000
:10010000CB010008DFF80CD000F076F8004800477B
:10011000B5040008B0650020224B19680868B0E8F3
:10012000F00F80F30988BFF36F8F4FF0000080F36A
:1001300011884EF00D0E7047000000000648006860
:10014000006880F3088862B661B6BFF34F8FBFF3D3
:100150006F8F00DF00BF00BF08ED00E0EFF3098004
:10016000BFF36F8F0F4B1A6820E9F00F106008B5CE
:100170004FF0BF0080F31188BFF34F8FBFF36F8F35
:1001800000F0CCFD4FF0000080F31188BDE808407E
:1001900019680868B0E8F00F80F30988BFF36F8F23
:1001A000704700BF84000020EFF305807047000017
:1001B0000648804706480047FEE7FEE7FEE7FEE701
:1001C000FEE7FEE7FEE7FEE7FEE7FEE75102000876
:1001D00005010008D2B201E000F8012B491EFBD254
:1001E00070470022F6E710B513460A460446194642
:1001F000FFF7F0FF204610BD064C074D06E0E06813
:1002000040F0010394E8070098471034AC42F6D35D
:10021000FFF77CFF041100082411000800BFFEE76F
:10022000704710B54FF4004000F07AF830B100206C
:1002300000F0C0F84FF4004000F06CF810BD00BFB3
:10024000FEE700BFFEE7704710B500F057F810BD9D
:1002500010B51448006840F00100124908600846D3
:100260004068114908400F494860084600680F4936
:1002700008400C4908600846006820F480200860A7
:10028000084640680A490840064948600846006830
:1002900006490840034908604FF41F00886000F0D9
:1002A0004FFC10BD001002400C00FFE8FFFFF6FEFF
:1002B000FFFF00F706E0002000F070F84FF4FA604E
:1002C00000F0D4FCF7E706E0002000F05BF84FF404
:1002D000FA6000F0CBFCF7E700BFFEE702E008C8D9
:1002E000121F08C1002AFAD170477047002001E0B0
:1002F00001C1121F002AFBD17047000004480068AA
:1003000020B103480068401E0149086070470000A2
:1003100000000020014908607047000014040140FB
:1003200001460748006800EA0102054814380068E1
:1003300000EA010312B10BB1012070470020FCE775
:100340001404014010B504460B4931F8140000F0C4
:1003500085FB0A4951F82430094951F82400032249
:10036000102100F048F8054850F82400044951F8DD
:100370002410486110BD000024000020140000205B
:1003800004000020034951F82010034A52F82020AD
:10039000516170471400002004000020034951F807
:1003A0002010034A52F820201161704714000020E9
:1003B0000400002070B504460A4A52F824100A4A84
:1003C00052F8240000F06DF8C0F10100C5B2054AF2
:1003D00052F82410044A52F824002A4600F006F885
:1003E00070BD000014000020040000200AB101616B
:1003F00000E041617047F0B5044616460025002232
:1004000001F00F0501F0100707B1354300201EE091
:10041000012787401F40C7B122684FEA800C0F2791
:1004200007FA0CF7BA43870005FA07F73A43282979
:1004300004D1012787401F40676105E0482903D1A7
:10044000012787401F4027612260471CB8B2082857
:10045000DED3082022E0012787401F40E7B1626811
:10046000A0F108074FEA870C0F2707FA0CF7BA43E9
:10047000A0F10807BF0005FA07F73A43282904D17D
:10048000012787401F40676105E0482903D1012704
:1004900087401F4027616260471CB8B21028DAD33A
:1004A000F0BD02469068084008B101207047002066
:1004B000FCE700001CB54FF4407000F02BF8002062
:1004C000FFF740FF0020022103468022CDE9001003
:1004D00008A10B4800F06CFC00200221034680229A
:1004E000CDE9001007A10A4800F062FC00F0D8FB3B
:1004F00000BFFEE75461736B4C656431000000007F
:10050000B50200085461736B4C6564320000000052
:10051000C702000802490143024A11607047000007
:100520000000FA050CED00E02DE9F04105460E460D
:100530002648076826480068001D00F005FB50B9F2
:100540002348006890F82C10012088402149096850
:10055000814320480160681CD8B9D6B11E4948685B
:100560001B49096888601A4982680968CA60184985
:100570000968091D8268516015490968091D816073
:10058000154A134909684A6111460968491C1160F6
:100590001AE07C190E4800684460BC4207D20C483F
:1005A0000168091D0D48006800F0F2FA0CE00848E7
:1005B0000168091D0A48006800F0EAFA0948006865
:1005C000844201D207480460BDE8F0819800002011
:1005D000840000209C000020980100208C00002056
:1005E00088000020B400002010B5044600F0EAFAAC
:1005F0002F480068401C2E4908602E48006840B90A
:100600002C4804600846006801280DD100F016F956
:100610000AE02948006838B926480068C06AE16ADB
:10062000884201D82348046024480068401C2349BC
:10063000086094F82C10012088402149096808437B
:100640001F490860E16A01EB81011E4A02EB81014A
:100650004868A0608268E260211D82685160816004
:10066000E16A01EB8101174A02EB81026261E16AF2
:1006700001EB8101134A52F82110491CE26A02EB96
:100680008202104B43F8221000F0AEFA0A480068CC
:1006900068B108480068C06AE16A884207D24FF032
:1006A000805009490860BFF34F8FBFF36F8F10BDB3
:1006B0009400002084000020A0000020B000002052
:1006C0009C000020E400002004ED00E010B516E0DE
:1006D00000F078FA0C48C068C468201D00F034FAB5
:1006E0000A480068401E0949086009480068401E21
:1006F0000749086000F078FA204600F00BF804483B
:1007000000680028E4D110BD84010020940000207E
:100710009000002010B50446206B00F075FA2046CA
:1007200000F072FA10BD000030B54FF48843154850
:1007300000F007042CB1C01D20F00700114C041B71
:100740001B1B0246104C226000240F4D6C60D01819
:10075000083820F007000D4C206000240B4D2D6858
:100760006C600A4D2D682C601146441A4C60074C91
:1007700024680C60064D4C682C60064D4C682C605B
:1007800030BD0000AC010020C4000020CC000020DF
:10079000D4000020D000002000BFFFF797FF0648DC
:1007A00000680128F9D94FF0805004490860BFF370
:1007B0004F8FBFF36F8FF0E7E400002004ED00E0FF
:1007C0002DE9FF5F80460E469146DDE90E7A109CCA
:1007D000A9F10100216B01EB800B2BF0070B7EB11F
:1007E000002507E0715D04F134004155705D00B9EA
:1007F00002E06D1C102DF5D300BF002143200155F0
:10080000052F00D30427E762201D00F0BEF904F194
:10081000180000F0BAF92461C7F10500A061646214
:1008200041465846039A00F007F92060BAF1000FDC
:1008300001D0CAF80040BDE8FF9F000010B50024B9
:1008400007E004EB84010F4A02EB810000F090F90D
:10085000641C052CF5D30C4800F08AF90B4800F015
:1008600087F90B4800F084F90A4800F081F90A483A
:1008700000F07EF904480949086004480849086006
:1008800010BD0000E4000020480100205C010020B1
:1008900070010020840100209801002088000020C1
:1008A0008C00002010B50146164800E0006803687F
:1008B0008B42FBD30246436813448B4204D1436806
:1008C0004C682344436001460A464B68134404685D
:1008D000A34211D10C4C03682468A34208D04B6892
:1008E0000468646823444B6003681B680B6005E080
:1008F000054B1B680B6001E003680B60884200D069
:10090000016010BDC4000020CC0000200948006830
:10091000006808B9012000E0002020B14FF0FF304E
:100920000549086005E003480068C068006802499E
:100930000860704788000020B400002000BFBF207E
:1009400080F31188BFF34F8FBFF36F8F00BF00BFDD
:10095000FEE700002DE9F04705464FF0000900F0E2
:10096000D5F93048006808B9FFF7DEFE75B105F02B
:100970000700C0F11008C8F1FF30A84201D20120E1
:1009800000E0002008B9454400E00025012000EB0C
:10099000E570002841D0002D3FD0234800688542F3
:1009A0003BD8224E3046046801E026462468606841
:1009B000A84202D220680028F7D11A480068844271
:1009C0002BD0306800F10809206830606068401B57
:1009D000102807D967196068401B78606560384641
:1009E000FFF760FF104960680968081A0E4908603F
:1009F000084600680E490968884203D20A48006820
:100A00000B490860606840F0004060600020206092
:100A100008480068401C0749086000F0C5FA4846CD
:100A2000BDE8F087CC000020D0000020C4000020EA
:100A3000D4000020D8000020001F4FF08073036016
:100A4000001F21F001030360001F034B03601438F3
:100A500002602038704700003D090008064A02EB9A
:100A60009011096800F01F0301229A401143024BC4
:100A700003EB90121160704700100240002000212B
:100A80002C4A126842F480322A4B1A6000BF401C84
:100A9000284A126802F4003119B94FF6FF729042E9
:100AA000F5D1244A126802F400320AB900BFFEE709
:100AB000204A52681F4B5A601A4652685A601A46BA
:100AC000526842F480625A601A46526822F44032F8
:100AD0005A601A46526842F440325A601A465268C6
:100AE000154B1A40134B5A601A465268134B1A435F
:100AF000104B5A601A46126842F080721A6000BFAA
:100B00000C4A126802F00072002AF9D0094A5268B1
:100B100022F00302074B5A601A46526842F0020262
:100B20005A6000BF034A526802F00802002AF9D056
:100B30007047000000100240FFFFC3F700002808C4
:100B400010B5FFF79BFF10BD01460A69D1E90130DE
:100B50009860D1E9010358605068884201D18868E3
:100B60005060002008611068401E106010687047D7
:100B700000F1080141604FF0FF31816000F1080190
:100B8000C16001610021016070470021016170476F
:100B900010B502460B685C1C0CB9106907E002F145
:100BA000080000E04068446824689C42FAD9446820
:100BB0004C604C68A160886041600A611468641CE4
:100BC000146010BD00BFBF2080F31188BFF34F8FAA
:100BD000BFF36F8F00BF03480068401C01490860E5
:100BE00070470000E000002006480068401E0549EC
:100BF00008600846006820B9002080F3118800BF13
:100C000000BF7047E000002070B506463546E6B1EB
:100C1000083D2C466068C00FB8B12068A8B960686C
:100C200020F00040606000F071F8084960680968D1
:100C30000844064908602046FFF734FE044800686F
:100C4000401C0349086000F0AFF970BDD0000020DF
:100C5000DC00002000204FF0E0210861886102489C
:100C60004861072008617047DFA5010070B50446A0
:100C7000002544B100F04AF800212046FFF754FC5B
:100C800000F092F905463DB94FF0805003490860E5
:100C9000BFF34F8FBFF36F8F70BD000004ED00E016
:100CA0001CB5124800210B468022CDE9001010A18E
:100CB000114800F07DF80446012C14D100BFBF207C
:100CC00080F31188BFF34F8FBFF36F8F00BF4FF0DA
:100CD000FF300A49086001200949086000200949DD
:100CE000086000F04BF8084800681CBDB800002000
:100CF00049444C450000000099070008B40000205A
:100D0000A000002098000020BC00002002480068DD
:100D1000401C014908607047C0000020124800686C
:100D200018B10120114908601DE000200F4908603A
:100D30000F480068B0FA80F0C0F11F0101EB81029A
:100D40000C4B03EB820042685268426000F10802DB
:100D50004368934202D14268526842604268D26856
:100D6000054B1A6000BF7047C0000020A80000209B
:100D70009C000020E40000208400002010B50A48F8
:100D8000006840F47F00084908600846006840F0A9
:100D90007F400860FFF75EFF002004490860FFF70E
:100DA000CDF9002010BD000020ED00E0E0000020A3
:100DB0002DE9FF4F85B0804689461746DDE912AB25
:100DC000B800FFF7C7FD064676B14C20FFF7C2FD1D
:100DD00004462CB14C212046FFF703FA266304E0B9
:100DE0003046FFF711FF00E000247CB10020CDE980
:100DF00000ABCDE902403A4649464046089BFFF722
:100E0000DFFC2046FFF7F0FB012501E04FF0FF3546
:100E1000284609B0BDE8F08F2DE9F041002757487A
:100E2000006800287ED156480068451C544805607B
:100E30008DB95448D0F80080534800685149086083
:100E40005148C0F8008051480068401C4F49086074
:100E5000FFF75CFD00BF4E480068854276D300BFB7
:100E600048480068006808B9012000E0002020B16F
:100E70004FF0FF304649086067E042480068C068AC
:100E8000C4686668B54202D2414806605DE06069A8
:100E9000D4E902128A60D4E902214A60211D426825
:100EA0008A4201D1E1684160002262610168491E05
:100EB0000160A06A98B1A06AD4E907128A60D4E9F7
:100EC00007214A6004F1180142688A4201D1216A6F
:100ED00041600022A2620168491E016000BF94F8CF
:100EE0002C10012088402B490968084329490860D3
:100EF000E16A01EB8101284A02EB81014868A060A8
:100F00008268E260211D826851608160E16A01EBC4
:100F10008101214A02EB81026261E16A01EB8101F8
:100F20001D4A00E022E052F82110491CE26A02EB5F
:100F30008202194B43F822101849E06A0968C96A0D
:100F400088428DD901278BE700E000BF1348006875
:100F5000C06A00EB8000104951F82000012800D938
:100F600001270F48006800B1012704E00D48006820
:100F7000401C0C4908603846BDE8F081C0000020E4
:100F800098000020880000208C000020AC00002089
:100F9000B40000209C000020E40000208400002019
:100FA000A8000020A400002070B500240026FFF750
:100FB00009FE4B480068401E494908600846006821
:100FC00000287DD147480068002879D05BE046487A
:100FD000C068C468A06AD4E907128A60D4E907210E
:100FE0004A6004F1180142688A4201D1216A4160D5
:100FF0000022A2620168491E01606069D4E9021200
:101000008A60D4E902214A60211D42688A4201D1E6
:10101000E1684160002262610168491E016094F844
:101020002C10012088403149096808432F49086085
:10103000E16A01EB81012E4A02EB81014868A06060
:101040008268E260211D826851608160E16A01EB83
:101050008101274A02EB81026261E16A01EB8101B1
:10106000234A52F82110491CE26A02EB8202204B0B
:1010700043F822101F49E06A0968C96A884202D30E
:1010800001201D4908601848006808B9012000E0E7
:10109000002000289BD00CB1FFF738FC17480568EA
:1010A00065B100BFFFF7B8FE10B10120124908601A
:1010B0006D1E002DF6D10020104908600E4800E09A
:1010C00009E0006838B1012630070D490860BFF318
:1010D0004F8FBFF36F8FFFF787FD304670BD000065
:1010E000C000002094000020700100209C0000201F
:1010F000E400002084000020A8000020A4000020BC
:1011000004ED00E02411000800000020E4000000CD
:10111000DC02000808120008E4000020CC64000093
:10112000EC02000800000000001001400000000078
:10113000000000000000000000200000000000008F
:101140000000000000000000040600000000000095
:101150001107000000020000000000000004000071
:10116000000000000008014000000000020600002E
:1011700000080140000000000000000000800000A6
:101180000000000000000000020600000000000057
:101190000080000000000000000000000000000FC0
:1011A0000000280000000000000000000000000017
:1011B000000000000000000000000000000000002F
:1011C000000000000000000000000000000000001F
:1011D000000000000000000000000000000000000F
:1011E00004000000000000000000000000000000FB
:1011F00000000000000000000000000000000000EF
:0812000000000000AAAAAAAA3E
:0400000508000105E9
:00000001FF
