:020000040800F2
:10000000102000201901000889010008850100085E
:1000100087010008610100085D030008000000007E
:100020000000000000000000000000008D0100083A
:1000300063010008000000008B0100088F01000828
:1000400033010008330100083301000833010008C0
:1000500033010008330100083301000833010008B0
:1000600033010008330100083301000833010008A0
:100070003301000833010008330100083301000890
:100080003301000833010008330100083301000880
:100090003301000833010008330100083301000870
:1000A0003301000833010008330100083301000860
:1000B0003301000833010008330100083301000850
:1000C0003301000833010008330100083301000840
:1000D00033010008330100088902000833010008D9
:1000E000650100083301000833010008000000002A
:1000F0000000000000000000000000000000000000
:1001000033010008DFF80CD000F018F80048004771
:1001100021050008102000200648804706480047B7
:10012000FEE7FEE7FEE7FEE7FEE7FEE7FEE7FEE7A7
:10013000FEE7FEE79501000805010008064C074DA3
:1001400006E0E06840F0010394E8070098471034A7
:10015000AC42F6D3FFF7DAFFE00800080009000818
:10016000FEE7704780B54FF4004000F009F940B158
:10017000002000F025F94FF40040BDE8804000F079
:10018000F9B880BDFEE7FEE770477047704700F0A2
:10019000E7B800002C482D4A016841F001010160D8
:1001A000416811402A4A41600168114001600168BC
:1001B00021F480210160274943680B4043600368B4
:1001C0001A4002604FF41F028260026842F48032DB
:1001D00002604FF6FE7203681AB1013A13F400335D
:1001E000F9D0026812F4003F00D1FEE7426801F541
:1001F0004301426042684260426842F48062426069
:10020000426822F440324260426842F44032426026
:1002100042681140104A41604168114341600168E1
:1002200041F080710160016811F0007FFBD04168EE
:1002300021F003014160416841F0020141604168E1
:1002400011F0080FFBD07047001002400C00FFE8CF
:10025000FFFFF6FEFFFF00F700002808F8B5574E35
:100260000C4605460027F8B2A04228BFF8BD295C1D
:10027000304600F045FA3046072100F098FA002891
:10028000F9D00137EFE700BF10B54C4C09492046C3
:1002900000F0AFFA60B1204600F02EFAC1B220465D
:1002A00000F02EFA2046072100F081FA0028F9D04C
:1002B00010BD00BF05030500B0B540F2026000F0BC
:1002C000D1F940F2117000F0CDF93C4C1821032215
:1002D0004FF4007304F54445284600F08FF8284693
:1002E000042103224FF4806300F088F808200121E4
:1002F00000F0E0F8204600F007FA20464FF4E13124
:1003000000F0D6F92046002100F0A6FA2046002190
:1003100000F094FA2046002100F082FA20460021E5
:1003200000F056FA2046002100F04CFA2046042145
:1003300000F07EFA2046082100F088FA204600F0FE
:1003400031FA26200021002200F00CF9204640F26C
:100350000531BDE8B04000F041BA00BFFEE7000043
:100360000348016811B1016801390160704700BF9D
:100370000800002001490860704700BF14040140D4
:1003800005494A69024018BF01220968084018BFA0
:1003900001201040704700BF00040140B0B5D54DAA
:1003A0000446C1B2284600F0ABF92846072100F008
:1003B000FEF90028F9D02046B0BD00BF004400403F
:1003C000B0B5094951F82040084951F8205020465D
:1003D000294600F06AF8C0F101002946C2B2204661
:1003E000BDE8B04000F004B8B8080008C80800082C
:1003F0001023002A08BF1423195070472DE9F04F2D
:1004000001F00F0C11F0100F00F1100E00F11408A4
:100410004FF000044FF0010A4FF00F094FF00007B2
:1004200018BF4CEA020C19E00AFA07F212EA030BB1
:1004300012D0026809FA04F60CFA04F5282922EA17
:10044000060242EA050603D0482904D1754600E0B9
:100450004546C5F800B0066004340137082FE3D1E3
:10046000082400254FF0010A4FF00F09102C08BF97
:10047000BDE8F08F0AFA04F212EA030B12D04268C8
:1004800009FA05F70CFA05F6282922EA070242EADA
:10049000060703D0482904D1764600E04646C6F850
:1004A00000B0476004350134E0E78068084018BFB9
:1004B0000120704710B5194A002800F440141FFAB3
:1004C00080FC1346B8BF43F01803B4F5401F1B6807
:1004D000C0F3034E06D1146823F0706324F07064F7
:1004E00014600EE0C40206D447F6F07404EA5044E7
:1004F0000CFA04F402E0032404FA0EF4A34343F0DC
:10050000706331B147F6F07101EA50410CFA01F124
:100510000B430028B8BF1832136010BD040001401F
:10052000E0B5FFF7C9FE07A000F09EF933200321D4
:100530008DF8060043F23120ADF8040001A8FFF762
:100540008DFEFEE761207573617274207472616EB6
:10055000736D69742074657374206578616D706C57
:100560006521000010B5124C236803F4E063A3F585
:1005700040731B0A052B02D2C3F1040403E00D4BA8
:1005800023600223022499400F23E3401A401143C1
:10059000094A090140EA020383F800131C210123E0
:1005A00001EAD00100F01F0003FA00F0885010BDEE
:1005B0000CED00E00005FA0500E100E010B5214A6D
:1005C0001168C1F381032049022B19D113681F4C14
:1005D00013F4803F04D0136813F4003F08BF0C46A7
:1005E0001168C1F38343116811F0006F04D1991CA5
:1005F0000F2B08BF102102E043F0100101316143CD
:10060000136814680328C4F3022CC3F3031312689D
:100610000BD810A4DFF838E0E35C21FA03F3DFE83D
:1006200000F00F02060919460AE0002108E01EF852
:100630000C0003E0C2F3C2201EF8000023FA00F110
:10064000084610BD0410024000127A0000093D0067
:10065000D8080008000000000000000001020304A8
:100660000607080900F01F010122800902FA01F1C2
:100670000E4A835819438150704700BF00F01F0194
:100680000122800902FA01F1084A835823EA010194
:100690008150704700F01F010122800902FA01F128
:1006A000024A835819438150704700BF001002402E
:1006B000B0B504463A480D4684420DD035488442D0
:1006C00008D03548844205D03448844202D03048AE
:1006D00084420CD1022000E00320C0B2FFF76EFF7D
:1006E00000EB5500B0FBF5F080B2A060B0BD00207B
:1006F000F6E700BF0044004040686FF35F2070479A
:100700006FF35F214160704780B52149884216D060
:10071000204988421DD02049884224D01F49884260
:100720002BD01F49884218BF80BD40F20E30FFF722
:10073000B1FF40F20E30BDE88040FFF79FBF40F2AE
:100740001140FFF7A7FF40F21140BDE88040FFF7DE
:1007500095BF40F21240FFF79DFF40F21240BDE806
:100760008040FFF78BBF40F21340FFF793FF40F24A
:100770001340BDE88040FFF781BF40F21440FFF70F
:1007800089FF40F21440BDE88040FFF777BF00BF0B
:100790000044004000480040004C00400050004031
:1007A00000380140C16841F40051C160704701F058
:1007B0001F0289090123085803FA02F2104018BFEA
:1007C00001207047426922F4007211434161704771
:1007D000426922F4807211434161704701F01F02A7
:1007E0000123C1F3891103FA02F20B581A430A508C
:1007F0007047C1F3891301F01F024FF0010C1B5821
:100800000CFA02F21A4018BF0122C1F30443890D09
:1008100008580CFA03F3184018BF01201040704725
:10082000C26822F4C062C260C2681143C1607047EE
:10083000C26822F004021143C1607047026922F4C9
:10084000405202610269114301617047C26822F09F
:1008500008021143C1607047C26822F48052C2602E
:10086000C2681143C1607047014A024900F013B8E1
:100870009D0300080000002002E008C8121F08C104
:10088000002AFAD170477047002001E001C1121F11
:10089000002AFBD170472DE9F04116460F46044669
:1008A000002503E03946B047641C6D1C2078002801
:1008B000F8D12846BDE8F08100100140000000009A
:1008C0000000000000000000002000000000000008
:1008D000000000000000000000000000010203040E
:1008E0000009000800000020080000007808000847
:1008F00008090008080000200820000088080008F7
:080900000000000000000000EF
:0400000508000105E9
:00000001FF
